{
  "contractName": "Test",
  "abi": [
    {
      "anonymous": false,
      "inputs": [
        {
          "indexed": true,
          "internalType": "uint256",
          "name": "sum",
          "type": "uint256"
        }
      ],
      "name": "Sum",
      "type": "event"
    },
    {
      "constant": false,
      "inputs": [
        {
          "internalType": "uint256",
          "name": "a",
          "type": "uint256"
        },
        {
          "internalType": "uint256",
          "name": "b",
          "type": "uint256"
        }
      ],
      "name": "sum",
      "outputs": [
        {
          "internalType": "uint256",
          "name": "",
          "type": "uint256"
        }
      ],
      "payable": false,
      "stateMutability": "nonpayable",
      "type": "function"
    }
  ],
  "bytecode": "0x608060405234801561001057600080fd5b5060ea8061001f6000396000f3fe6080604052348015600f57600080fd5b506004361060285760003560e01c8063cad0899b14602d575b600080fd5b606060048036036040811015604157600080fd5b8101908080359060200190929190803590602001909291905050506076565b6040518082815260200191505060405180910390f35b6000808284029050807fbe8396be439ff63ba2ec3820c0c8b49f52bbce98f8dea95fc95e13f224cc35e160405160405180910390a2809150509291505056fea265627a7a72315820f6fffd3d85921a66c4bf2a659691d17b9b58900a225243e043c8462acdc5ec1e64736f6c63430005100032",
  "source": "pragma solidity >=0.4.22 <0.8.0;\r\n\r\ncontract Test {\r\n    event Sum(\r\n        uint256 indexed sum\r\n    );\r\n    \r\n    function sum(\r\n        uint256 a,\r\n        uint256 b\r\n    ) public returns (uint256) {\r\n        uint256 c = a * b;\r\n        emit Sum(c);\r\n        return c;\r\n    }\r\n}\r\n",
  "sourcePath": "E:/Blockchain study/a+b smart contract/contracts/Test.sol",
  "compiler": {
    "name": "solc",
    "version": "0.5.16+commit.9c3226ce.Emscripten.clang"
  },
  "schemaVersion": "3.4.1",
  "updatedAt": "2021-07-05T05:56:57.544Z",
  "networkType": "ethereum",
  "devdoc": {
    "methods": {}
  },
  "userdoc": {
    "methods": {}
  }
}